:020000040800F2
:10000000480F0020CD060008D5060008DD060008D0
:10001000E5060008ED060008F506000800000000EF
:10002000000000000000000000000000FD060008C5
:1000300005070008000000000D070008150700086C
:100040001D0700081D0700081D070008152C0008E3
:10005000591700081D070008710F00084D230008FC
:100060001D070008491A000879390008B12B00085B
:100070001D0700081D0700081D070008B938000803
:1000800095130008DFF80CD000F042FF004800474D
:10009000FD4B0008480F0020F0B5B1F90430B1F96C
:1000A000022088805343B1F900204FF0404642437C
:1000B000D417D218C86844EBE3744FEAE073101801
:1000C0005C41F543821B74F1FF3201DA304606E0F1
:1000D0006FF0404300221B1AA24100DA28464A89E9
:1000E000B1F90630C2F10F04B1F90870A340A7407E
:1000F000B84201DC384602E0984200DB1846C8608E
:100100000146904025FA02F3994201DD284605E0B8
:100110004FF000431341994200DC304600F5804027
:1001200040F3CF30F0BD2DE9F043B1F90040B1F913
:1001300004206FF040454443AB074FF00048002ACD
:1001400002DA524214410EE096B204FA06F225FA9F
:1001500006F7BC4201DD2A4604E048FA06F7BC4235
:1001600000DC1A461446B1F90220B1F90C7002FB0A
:1001700000F602FB07624FF08047A146BA4201DB5E
:100180002A4602E09A4200DA1A468881B1F906004E
:100190000E69002812DBC8881446824025FA00FC4C
:1001A000644501DD2A4604E048FA00F8444500DCD5
:1001B0001A463244BA4204DB2A4605E04042024174
:1001C000F7E79A4200DA1A46B1F90A60B1F9084035
:1001D000F0034FEAC43C824200DD0246624500DA89
:1001E00062460A6109EB0201B94201DB294602E0DD
:1001F000994200DA194601F58041B94201DB2946EE
:1002000002E0994200DA194641F3CF30864200DC21
:100210003046844200DB2046BDE8F08310B5B1F9DA
:100220000220B1F9004000FB02F3088004FB023019
:100230008A681044886000F5804040F3CF3010BDDC
:1002400070B5CA684FF08046751E1044AC07B042C6
:1002500001DB284602E0A04200DA2046C8600B7AA3
:1002600040FA03F3C01AB04201DB284602E0A04284
:1002700000DA2046C86018B270BD000030B5B1F990
:10028000002043F26C735A43B1F90230D2139B1031
:1002900004D40024048015461C4604E00324048092
:1002A000544225B25C42A54211DD1A44B1F9021054
:1002B00012B2891A01F30F0101F5804101F30F0316
:1002C0000488C2F5804101F30F01641C23E06D42F4
:1002D000A54211DDD21A12B2B1F9021004881144FC
:1002E00001F30F01C2F58043C1F5804103F30F0311
:1002F00001F30F01E41C0EE0B1F9021052004B10A3
:10030000C3F58041048803F5804312B201F30F0165
:1003100003F30F03A41CA4B2641E02F5804202F38F
:100320000F020480002A00DA0022002B00DA0023EA
:10033000002900DA00218281C38101820121C1806C
:1003400030BD0A880280B1F9022044F6E713B1F902
:1003500004105A43594342F3CF3241F3CF31511A7B
:1003600001F30F0141807047F0B5B1F90030B2F9E7
:100370000240B2F900506343B1F902404FF08046A9
:1003800004FB0533751EAC07B34201DB2B4602E0CC
:10039000A34200DA234603F58043B34201DB2B4638
:1003A00002E0A34200DA2346DB130380B1F90230F6
:1003B000B2F90270B1F90010B2F900207B4301FBE1
:1003C0001233B34201DB2B4602E0A34200DA23469C
:1003D00003F58043B34201DB2B4602E0A34200DA7F
:1003E0002346D9134180F0BD30B5B1F90040B2F9D0
:1003F0000230B2F900505C43B1F9023044F3CF341B
:100400006B4343F3CF33E31A03F30F030380B1F9D4
:100410000030B2F90040B1F902106343B2F9022092
:1004200043F3CF33514341F3CF31194401F30F016B
:10043000418030BDF0B5B2F90030B2F902205B1056
:1004400043F00103D20392FBF3FCB1F90020D20385
:100450008CFB02239C0044EA92736FF04044DA0361
:10046000E5132704A607AB4201DD224602E0BB42AA
:1004700000DC3246D2130280B1F90210C9038CFBB2
:1004800001218B0043EA9271CA03A94201DD224691
:1004900002E0B94200DC3246D1134180F0BD0000D9
:1004A00030B547F6FF72D44319B1002804DD034686
:1004B00003E0002814DC0EE043421DB2002901DDF8
:1004C0000B4600E04B421BB29D4206DB484005490B
:1004D000B1EBD03F04D1224602E000F005F802461D
:1004E000104630BDFFFF0100C30301EBD1720028AD
:1004F00002DB002902DA04E0002902DA03EB6200E1
:1005000001E0A3EB620090FBF1F000B27047000045
:100510002DE9FF4F87B01D460898164603A9B0F98C
:100520000000149C02F0C2FF03AA31466846FFF7A0
:100530001BFF03AA294602A8FFF716FFD4E901BA58
:10054000BDF900104BF3CF30081A00F30F0004F18F
:100550001C01FFF7A1FD20800646BDF902104AF3F9
:10056000CF30081A00F30F0004F10C01FFF794FDDF
:10057000019060800590B4F93C10019801FB06F3EE
:100580004143BDF90820B4F93A006FF0404702FB3F
:1005900000334FF0804CBA07634501DB3B4602E075
:1005A000934200DA13461D46BDF90A3003FB0013DF
:1005B000634501DB3B4602E0934200DA13460798AD
:1005C000DF17B0F90020B4F93E004243BDF9020044
:1005D000C00382FB0001800F40EA8100C11740196F
:1005E00041EBE571BDF900504FEAC53582FB0525A9
:1005F0004FEA927242EA8502B3EB020967EBE278B6
:10060000B4F94270002F0ADD3A4600F0BEF8054604
:1006100004913A464846414600F0B7F80BE07A426A
:1006200012B2174600F0C0F805460491484641460C
:100630003A4600F0B9F894F83420E76AD3073B4310
:1006400094F83670D4F830C0C4E90B504CEAC77740
:10065000DDF810C0EB184FEA4C0848EAD57CA4F846
:1006600034C04FEA410C4CEAD071E186B4F9401035
:10067000C5194FEAC1318BFB01704FEA800C4CEA7F
:1006800097708AFB01714FEA810C181800224CEA1E
:100690009771691800F31E0001F31E01C4E90101FE
:1006A000059830B1704201B2019802F0A7FE208790
:1006B00000E02287B4F93820DDE9070104F14403A2
:1006C00000F086FC0BB0BDE8F08F000014488047B6
:1006D0001448004700B503F012F800BD00B501F062
:1006E000ADFE00BD00B502F08FFF00BD00B500F00B
:1006F00049FE00BD00B503F087FF00BD00B503F063
:1007000021FB00BD00B500F0B9FF00BD00B503F04E
:10071000C3F900BD00B503F081FE00BDFEE7000097
:100720007D440008850000082DE9F05F05460020A3
:1007300092469B4688460646814640241BE0284652
:1007400041464746224600F03FFB53465A46C01AF0
:10075000914110D311461846224600F016F82D1A82
:1007600067EB01084F4622460120002100F00DF8FA
:1007700017EB00094E41201EA4F10104DFDC4846BE
:1007800031462A464346BDE8F09F202A04DB203A42
:1007900000FA02F1002070479140C2F1200320FAD4
:1007A00003F3194390407047202A06DBCB17203A09
:1007B00041FA02F043EAE07306E041FA02F3D04066
:1007C000C2F12002914008431946704740EA0103F4
:1007D0009B0703D009E008C9121F08C0042AFAD2F7
:1007E00003E011F8013B00F8013B521EF9D27047BB
:1007F000D2B201E000F8012B491EFBD27047002263
:10080000F6E710B513460A4604461946FFF7F0FF0F
:10081000204610BD80EA010210B502F000434000FE
:1008200022D04A001FD0010E01EB1261C0F3560026
:10083000C2F3560240F4000042F40002A0FB022082
:1008400000047F39140400D0401C50EA124001D447
:100850004000491EC2B20C0604EBD010401C4008F8
:10086000802A02D003E0002010BD20F00100002902
:1008700000DA0020184310BD30B480EA010202F013
:10088000004530F0004221F0004013D090B1C30D7C
:10089000D40DC2F31601C0F31600E41A41F40001AE
:1008A00040F400027D34914201D3641C00E0490011
:1008B000002C02DA30BC002070474FF40000002307
:1008C000914201D3891A034340084FEA4101F7D10D
:1008D00051B1914202D14FF0004105E002D24FF0F8
:1008E000010101E06FF0010103EBC450284430BC6A
:1008F00000F07ABA420005D0C0F3C752524291428A
:1009000001DC0020704700EBC15070472DE9FE4F1D
:10091000804681EA0300C00F0C46009021F00041A0
:1009200023F00045B8EB0200A94105D2404621461C
:1009300090461C460B46024623F00040104347D029
:10094000270DC7F30A00C3F30A510290401A019021
:1009500040286BDAC3F3130040F4801B00989246E2
:1009600020B10023D2EB030A63EB0B0B019859462D
:10097000C0F140025046FFF708FF06460D465046BC
:100980005946019AFFF710FF10EB0800614100245F
:1009900087EA115284EAE7731A4340D0009A62B39F
:1009A000019A012A4FEA075215DC001B61EB020194
:1009B0004FF0004202EA0752CDE90042001C41F527
:1009C000801132462B4600F055FA03B0BDE8F08F97
:1009D00040462146F9E7001B61EB0201001C41F58E
:1009E000801300185B412018A2F5001747EB0301A4
:1009F00040EAD570B6196D4111E06D084FEA360630
:100A000045EAC0754FEA0752001B61EB0201001C6A
:100A100041F5801149084FEA300000195141324632
:100A20002B4603B0BDE8F04F00F015BA0098012244
:100A300040000023D0EB020263EBE07300982146F4
:100A40004FEAE074B8EB000061EB0401E9E783F0E2
:100A500000435BE781F0004158E72DE9FE4F81EA52
:100A6000030404F0004421F0004100944FF0000B17
:100A700023F0004350EA01045ED052EA03045BD045
:100A8000C3F30A54C1F30A552C44A4F2F33401947D
:100A9000A0FB0254C1F3130141F48011C3F313030B
:100AA00043F4801301FB024400FB034E840A970ABF
:100AB00044EA815447EA8357A4FB076802958D0AEC
:100AC00005FB07854FEA932C04FB0C542705029D78
:100AD0004FEA065847EA1637B5EB08056EEB070CE8
:100AE000870E920E47EA811742EA8312A7FB0201A2
:100AF000B6EB0B0164EB00042B0D43EA0C335E18DC
:100B000044EB1C50DA465146E7FB0201C5F31304DF
:100B10004FEA0B3343EA14534FEA0432019C43EA91
:100B20000603A4F10C040294009CCDE900B400F08B
:100B3000A1F903B0BDE8F08F00200146F9E72DE9E7
:100B4000F04D81EA030404F0004B21F00045144607
:100B50004FF0000A23F0004150EA050220D054EA89
:100B600001021DD0C5F30A570246C5F31303C1F3B2
:100B70001300C1F30A5640F4801543F48013A7EB29
:100B80000608101BD64608F2FD3873EB050002D3A9
:100B900008F1010801E092185B41B8F1000F03DA97
:100BA00000200146BDE8F08D00204FF4801106467C
:100BB00084460EE0171B73EB050705D3121B63EB8E
:100BC000050306434CEA010C49084FEA300092182D
:100BD0005B4150EA0107EDD152EA030012D082EAEC
:100BE000040083EA0501084305D0101BAB4106D27F
:100BF0000122002306E000224FF0004302E06FF0E4
:100C0000010253101AEB06004CEB085110EB0A00DE
:100C100041EB0B01BDE8F04D00F01DB970B521F0BE
:100C2000004303430CD0C1F30A550024D5EB04055F
:100C300064EB0403D617AD1AB34102DB0020014672
:100C400070BD201841EB025170BDC10F80EAE07009
:100C50000844CA079623002100F0CFB800F00042F4
:100C600020F00040C10DC0F3160040F400007F29C1
:100C700001DA00207047962903DCC1F19601C840D3
:100C800001E096398840002AF4D04042704720F0B5
:100C90000040C10DC0F3160040F400007F2901DAC6
:100CA00000207047962903DCC1F19601C8407047C7
:100CB00096398840704770B5C1F30A5201F000457B
:100CC0000024C1F3130140F2FF3341F480119A4232
:100CD00001DA002070BD40F233439A42A2F233425F
:100CE00003DC524200F070F800E090402C43F1D059
:100CF000404270BD00F0004230F000400AD0C10D0B
:100D000001F56071C0F3160042EA0151C2084007C4
:100D100011437047002001467047000030B5041EA3
:100D200071F1000404DB4FF00044404264EB010128
:100D3000141E73F1000405DB1C464FF000435242C1
:100D400063EB04038B4208BF824230BD30B5041E02
:100D500071F1000404DB4FF00044404264EB0101F8
:100D6000141E73F1000405DB1C464FF00043524291
:100D700063EB0403994208BF904230BD01F0004389
:100D800030B421F0004150EA010206D00A0DA2F56C
:100D90006072C1F31301002A02DC30BC00207047EE
:100DA000440F44EAC104C100E01830BC00EBC2505B
:100DB00000F01AB8002801DBC0F10040002901DB77
:100DC000C1F1004181427047202A04DB203A21FA18
:100DD00002F00021704721FA02F3D040C2F1200254
:100DE00091400843194670470029A8BF7047401C2E
:100DF000490008BF20F00100704710B4B0FA80FC31
:100E000000FA0CF050EA010404BF10BC704749B16D
:100E1000CCF1200421FA04F411FA0CF118BF0121DD
:100E200021430843A3EB0C01CB1D4FEA00614FEABD
:100E3000102042BF002010BC704700EBC35010448C
:100E40000029A4BF10BC7047401C490008BF20F017
:100E5000010010BC704710B5141E73F1000408DACD
:100E6000401C41F1000192185B411A4301D120F06E
:100E7000010010BD2DE9F04D92469B4611B1B1FA2B
:100E800081F202E0B0FA80F220329046FFF77DFC5A
:100E900004460F4640EA0A0041EA0B0153465A460F
:100EA000084313D0114653EA010019D0C8F140029B
:100EB0005046FFF789FF05460E46504659464246C2
:100EC000FFF763FC084305D0012004E020463946C3
:100ED000BDE8F08D0020054346EAE0762C43374319
:100EE0000A986305E40AA0EB08000022FD0A44EA20
:100EF00047540A3002D500200146E9E701051019E0
:100F00006941DDE9084500196941BDE8F04DA2E7F6
:100F1000064C074D06E0E06840F0010394E8070046
:100F200098471034AC42F6D3FFF7B0F8705300087E
:100F30009053000830B58C1810F8012B12F00F03F5
:100F400001D110F8013B120906D110F8012B03E082
:100F500010F8015B01F8015B5B1EF9D101E001F8BB
:100F6000013B521EFBD1A142E6D3002030BD000060
:100F70000349C86DC00701D00120C8657047000053
:100F80000020024070B5062505810024C46042F2AD
:100F90006666068284824582C48244834DF20B7564
:100FA000058304628483891C4162921C82629B1DBA
:100FB000C36270BD00210180418041608160816118
:100FC0000182816201848186C186C16201637047AA
:100FD0002DE9F0410E4607461C4619461046FFF71C
:100FE0005BF8084D04F110012880FFF717F93080F5
:100FF00004F11C01B5F90000FFF722F93880BDE8C3
:10100000F08100006802002000B500F07FFA5DF872
:1010100004EB00F0AFBA7047F0B5224DB5F9BA2035
:10102000214F50427E0C01B2002A01DB134604E03E
:10103000BA4201D1334600E00B461A48B5F9D44014
:1010400090F85001A34207DA042828D0022826D0BD
:10105000002085F8500122E0002A01DB134604E05D
:10106000BA4201D1334600E00B46A34212DB002A0C
:1010700004DABA4201D1324600E00A46B5F9D61088
:101080008A4207DA04280AD0022808D0012085F80D
:10109000500104E0042802D0042085F8500101200A
:1010A000F0BD0000340300200080FFFF2DE9F04177
:1010B00004460D4616463B4841790C2901D2491C8D
:1010C00041714179384A012703230D2912D2DFE803
:1010D00001F011070707132222222D4A4A4A530022
:1010E0000079002806D0032804D200F015F92188E1
:1010F00008442080BDE8F08100790028FAD0032858
:10110000F8D2B4F9000090FBF3F02080106840F0B2
:1011100004001060EEE700790028EBD00328E9D244
:1011200000F0FAF8298808442880E3E701790029CB
:10113000E0D00329DED2B5F9001091FBF3F109B23A
:101140002980B4F90030C91AA82905DD0771106893
:1011500020F004001060CDE702210171106840F01A
:1011600010001060C6E700790228C3D100F0D4F85F
:10117000318808443080BDE7017902290DD1B6F9E4
:10118000001091FBF3F109B23180B4F90020891A03
:10119000A82901DD077100E00371BDE8F04100F00E
:1011A00079B80000D00100200020004030B40C4C81
:1011B0006379002B12D10B4B10259D605D600125DA
:1011C0001D60002303800B8013802079002805D048
:1011D000042803D2257130BC00F00CB830BC704735
:1011E000D001002000200040014800797047000035
:1011F000D001002010B50020234C244A216951F869
:10120000203042F82030401CC0B20D28F7D32048CF
:10121000816D61610121A171016821F01C010160F2
:10122000016821F4E0710160016841F480510160BE
:10123000016821F400710160016821F4806101609E
:10124000016821F400510160416821F03F0119312A
:10125000416000218165C1600161C16841F01001F8
:10126000C160C16821F00F01491DC160416921F4CD
:101270000041416141696FF30E01491C4161016800
:1012800041F00101016010BDD001002044070020A1
:101290000020024070B510494FF4006008600F480C
:1012A00000254560022101600D4C206820F00100FE
:1012B00020600C4B987900280CD000200A4A19694C
:1012C00052F8206041F82060401CC0B20D28F7D3CE
:1012D0005869A0655D7170BD80E100E000200040AC
:1012E00000200240D0010020440700200748017977
:1012F00000290AD00021417105484FF6FF71816035
:10130000012141600349C01408607047D0010020EA
:101310000020004000E100E010B5002100200C4A50
:10132000441ED465136843F002031360D36DDB07DA
:10133000FCD0536BC3F30B03194409B2401C0528BE
:10134000EFDB0528FDDB052091FBF0F000B210BDBE
:10135000002002400949002048700948816F21F0AF
:10136000FF01553181670721C1653F218165816F8B
:1013700021F0FF01AA318167704700003C01002085
:1013800000100240704700000020014908807047AB
:10139000E80100200C48816B8A040C4907D50A68D3
:1013A00042F480320A60826B42F400528263826BA4
:1013B000520407D50A6842F400320A60816B41F496
:1013C0008041816370470000000002405802002005
:1013D00000B503462822F121064800F019F8064915
:1013E000884201DA084600BD4FF4FA618842FADD0E
:1013F000084600BD784F000870FEFFFF10B5044698
:101400000846608004F10C0100F0FEFE208010BD53
:10141000F0B50025491E0EB21BE0AC1904EBD474E4
:10142000641024B2BCB18C4215D030F814709F42C5
:1014300005D304F1010C30F81CC09C450BD99F4228
:1014400003D904F101052DB203E002D2A4F1010693
:1014500036B2B542E1DD8C4201DB00200DE0651CB7
:1014600030F9141030F915000D1A18B2081A00EBF3
:101470008000400090FBF5F000B2A11A01EB810161
:1014800000EB410000B2F0BD10B5002100220E4B70
:101490001B7809E084186478214489B2FF2901D9B6
:1014A000C9B2491C521CD2B29A42F3D3007800F060
:1014B0003F023C2A05D2084481B2FF2901D9C9B2B2
:1014C000491CC843C0B210BD7E020020054948F245
:1014D000E47008640448C16821F4700101F58001DA
:1014E000C16070470000024000200240054948F2F8
:1014F000E47008640448C16821F4700101F510012A
:10150000C1607047000002400020024030B5184B17
:10151000B3F92600012801DA401CD8840120588440
:10152000134C68342268D50505D59D8C15B94FF448
:10153000FA75DD839884B3F91E10002902DD491E77
:10154000D9830AE0998C41B100259D84198C491CEE
:1015500009B21984814200DD1D84B3F926000128F7
:1015600004DB93F8240060F30822226030BD000001
:10157000F001002030B5234AB2F93000012801DA29
:10158000401C10861F4C4FF000036834216808028D
:101590000ED5D08D60B9B2F92A0080B1012811D0E2
:1015A0004FF4FA751585401C508593850120D08530
:1015B000B2F92800002808DD401E108508E06425E7
:1015C0001585F0E796251585EDE7D08D00B1D3851B
:1015D000B2F92A0000280BDDD08D48B9908D401C4F
:1015E00000B2908540F6B835A84201DB538593855B
:1015F000B2F93000012804DB92F82E0060F3D751D5
:10160000216030BDF0010020704700000248002139
:101610000180C18041807047980200200149888084
:10162000704700009802002000210170417040F2D4
:101630008F2242808180C18041F6CD7343818181B8
:10164000028170470B4848F2E4710164016841F47B
:1016500000310160816841F0020181600648416B00
:1016600021F00F01491C4163C16841F00101C160D3
:10167000704700000000024000500240704770B503
:101680001646049D0C461A4600280BD0016849B145
:10169000314600F026F8294600F006F8844200DCC6
:1016A000204670BD204670BD0246002905D047F691
:1016B000FF738A4203D31846704700207047C2EB7D
:1016C000C230B0FBF1F0B0F5004F00DB1846002847
:1016D00002DA0AB1002002E0002800DA002000B29D
:1016E0007047002805D0016819B1C989C180084632
:1016F000704740F6B830704710B50160FF220271A4
:1017000042710022002400EB42031C815C829C8316
:10171000DC84521CD2B2052AF5D311B1C989C1802B
:1017200010BD40F6B831C18010BD0000084800214E
:1017300041700848826F22F0FF0255328267C1650E
:101740003F218165816F21F0FF01AA3181677047D8
:101750003C010020001002402DE9F05F734E756FD0
:101760007348416B734CC1F30B016182816BC1F310
:101770000B01A182C16BC1F30B01E182016CC1F3CA
:101780000B012183426CC2F30B026283826CC2F3B1
:101790000B02A283C26CC2F30B02E283006DC0F3A2
:1017A0000B002084C80004F5F071FEF749FD608449
:1017B000DFF88481A8F8C80068067DD502F0B8FE7D
:1017C000824602F01DFA5D4F618AB889401A00B264
:1017D0003880F989A28A891A798001444942B980FE
:1017E000000103F071FB6086B7F90200000103F00D
:1017F0006BFBA086B7F90400583F000103F064FBBF
:10180000E08698F8D61039B1618EA8F8CE10A18E76
:10181000A8F8D010A8F8D200494ADFF828914FF074
:1018200000081178052909D1424932310B68C9F8FD
:1018300028308988A9F82C1082F800804FF41661AE
:10184000A9F804104049A38FCB80B4F83EC0A1F89A
:1018500008C0B4F894200A80B4F896208A803B49E6
:10186000B4F832B0A1F800B0B4F834B0A1F802B0C6
:101870008880608C8881208FA1F86800608FA1F833
:101880006A00CB81A1F810C0B4F84800C882B4F84F
:101890004A0008830A8602F0B9FF60782C49C0EB41
:1018A000C00001EB8000217850F821008047B4F996
:1018B0006001B4F9621100E02FE0B4F9643147F639
:1018C0006F52904200DD1046914200DD11464FF408
:1018D00016625043C01327F86C0F10464143C813DB
:1018E000788010464343D813B88027F8348C27F803
:1018F000328C27F8308C1148583802F069FAB4F865
:101900006C02401CA4F86C02706F40F040007067DD
:10191000504602F0FBFDC9F82400280603D5706F7D
:1019200040F080007067BDE8F09F000000100240AA
:101930000020024034030020BC080020680800207A
:10194000880200203C010020A6080020C4050020D9
:101950005C5100080949012048700948816F21F055
:10196000FF01553181670721C16500218165816FC4
:1019700021F0FF01AA318167704700003C0100207F
:1019800000100240FEE700002C4A2D48918B018098
:10199000C4398180518BC18001F2891141814FF49A
:1019A000AF61818140F21451C1819B2101828C2160
:1019B00041826FF0270181824FF47A71C182214800
:1019C000816A21F400118162816A21F4803181628F
:1019D000816A21F0F00140318162816A21F4801135
:1019E0008162816A21F440518162816A21F00F0194
:1019F000091D8162816A21F480018162816A21F47A
:101A0000706101F580618162816A21F4C021816287
:101A1000816A21F480318162816B21F4004181630C
:101A2000816B21F480518163816B41F4C0618163DA
:101A3000816B41F40061816370470000A8000020C1
:101A4000F807002000000240704700000A4991F8A2
:101A5000740200280FD0D1F8700248B1401EC1F8BE
:101A600070020878012806D00120087002F0D6BB69
:101A7000002081F8740270473403002010B55C48E0
:101A800048F2E4710164416941F0100141618168EB
:101A900041F010018160574C206820F01C0010308C
:101AA0002060206820F4E0702060206820F48060CE
:101AB0002060206820F400502060206840F400601E
:101AC0002060206820F480502060606820F03F0093
:101AD000143060604848416B21F4704101F5E041E9
:101AE0004163416B21F4702101F5E0214163E0681D
:101AF00040F01000E060E06820F00F000B30E06084
:101B0000E06840F40070E060E06820F4F07000F5F8
:101B1000C070E060E06840F48040E060E06820F47D
:101B2000705000F54060E060E06840F40020E06044
:101B3000E06820F4F02000F50040E060E06840F04C
:101B40008070E060E06820F4700000F58000E060E4
:101B5000E06840F00050E060E06820F0F05000F1F4
:101B6000A050E060606920F40040606160696FF33C
:101B70000E00401C6061A06920F40040A061A069D3
:101B80006FF30E002D30A061E06920F40040E061A9
:101B9000E0696FF30E005A30E061206A40F40040C3
:101BA0002062206A6FF30E0030302062606A40F4D9
:101BB00000406062606A6FF30E0030306062A06ABD
:101BC00040F40040A062A06A6FF30E003030A062C3
:101BD000062001F095FD0221062001F09CFDA06D7C
:101BE00020F00100A065206840F00100206010BDD9
:101BF00000000240002002400050024010B53C4866
:101C000048F2E4710164816841F020018160394C3F
:101C1000A06F20F0FF005530A06760696FF30F00E0
:101C20006061E0686FF30F0000F51660E0606068C7
:101C300020F4E0406060606820F4406000F580605F
:101C40006060606820F400406060A06820F400706C
:101C5000A060A06840F40060A060606840F400707C
:101C60006060606840F040006060606840F0800044
:101C70006060606840F480706060606820F001001F
:101C80006060606820F002006060606820F004001E
:101C90006060606840F008006060606840F01000BC
:101CA0006060606840F0200060601820206460641C
:101CB000A064E064206560654FF49660A0612062D6
:101CC000A062042001F01CFD0121042001F023FD8D
:101CD0000020E0653F20A065206F40F040002067B5
:101CE00001202060A06F20F0FF00AA30A06710BD87
:101CF000000002400010024010B5834848F2E47131
:101D00000164416841F0010141604403206820F012
:101D100008002060206820F010002060206840F05B
:101D200040002060206820F020002060206840F4FF
:101D300000402060206840F480302060206820F45B
:101D400080002060206820F0C07000F50000206056
:101D5000206820F000702060206820F0E0402060C3
:101D6000206840F480702060206840F4007020609B
:101D7000206840F480602060206840F400602060AB
:101D8000206840F480502060206840F400502060BB
:101D9000606840F007006060606840F03800606094
:101DA000606820F47F5000F54060606060686021EA
:101DB00061F3963060606068C0F3160000F1F04097
:101DC0006060206840F480402060E06820F00100FE
:101DD000E060E06820F01E00E060206A20F0FF0074
:101DE000F5302062206840F400302060206840F424
:101DF00080202060206840F080602060206840F0F3
:101E000000602060206940F078002061206920F0A7
:101E10000700C01C2061206940F4F0402061206967
:101E200020F4E06000F500702061206940F4F000CB
:101E30002061206920F4E02000F500302061206955
:101E400040F0F0402061206920F0E06000F1A060E7
:101E50002061606940F078006061606920F00700EF
:101E6000C01C6061606940F4F0406061606920F40A
:101E7000E06000F500706061606940F4F00060614E
:101E8000606920F4E02000F500306061606940F096
:101E9000F0406061606920F0E06000F1A060606186
:101EA000606A40F001006062606A40F008006062B1
:101EB000606A40F002006062606A40F01000606298
:101EC000606A40F004006062606A40F02000606276
:101ED000606A20F0400060620C49802008600121A7
:101EE000072001F018FC206840F001002060206805
:101EF00040F002002060206840F00400206020686C
:101F000040F40010206010BD0000024000E100E03D
:101F10000349044A08789060C04308707047000085
:101F20003C000020008000402DE9F0414F49881D11
:101F30000646FEF706FA4D4C323C04F15401B4F962
:101F400094000D4601F0B2FA2A46314604F13C00F5
:101F5000FEF70AFAB4F99600002804DA10F5004FEB
:101F600019D0404200B2424E40F2666106F11C07B1
:101F7000884213DDB4F93E003060B4F93C003860AB
:101F8000304600F065FA384600F062FAB089E08722
:101F9000B889A0870FE047F6FF70E4E7B4F93E0088
:101FA0003060B4F93C003860314800F051FA3048F4
:101FB0001C3000F04DFA2234B4F92410B4F9220098
:101FC000B4F91A20801A00F30F00E083B4F91C2042
:101FD000891A01F30F012184B4F9001044F6F502C7
:101FE0005143C913A1874942E18720492631FEF7B1
:101FF00053F8E084B4F93C10494341F3CF314043F6
:1020000040F3CF30081A00F30F0001F031FAA4F8C2
:102010004C004042A4F84E001449B4F92000363177
:10202000FEF73AF82085134994F82E0108700F49FD
:102030002A461631081D0546FEF7D6F92288A4F86F
:1020400062210D4A2946A2F59A700546FEF7F2F97B
:10205000B4F92810B4F9260001F096F9064829468B
:102060003038FEF70BF90120BDE8F081660300204F
:10207000680600203C010020B80400202DE9F0474C
:102080005D4FB88A401C80B2B8825C4E4FF00008A9
:10209000022803D296F85001042809D05749B6F90E
:1020A0009A008C3100F03EF9A6F89C00A7F8148045
:1020B0009636B6F90600B6F90010401A00F30F0084
:1020C00030814E49783100F0B1F87881B6F900409E
:1020D0004BF24A614A4A614391FBF2F109B207228D
:1020E00091FBF2F109B2F982DFF8189147F6FF7A15
:1020F00096F8BA10963E59B1012918D002295AD043
:10210000042965D0042086F850010120BDE8F0873D
:10211000B6F9BC003882A7F81280A6F84480B6F958
:102120009A10002900DA4042A6F84600EDE7B6F81A
:10213000BC003882B6F9BA100846002805DA4845CE
:1021400001D1504601E0404200B2B6F9D420801AD5
:1021500000F30F007882B6F9D620511A01F30F016F
:10216000FEF79EF97882AAEB000000F30F0001F061
:102170007FF9B7F91050002D05DA4D4501D15546CC
:1021800001E069420DB26843C013A6F84400B7F9F4
:10219000120001F06DF9B7F910104843C013A6F80A
:1021A0004600A6F84480B6F99A00002800DA4942B1
:1021B000A6F84610A9E7B6F9BC003882A6F8448014
:1021C000B6F99A10002900DA4042A6F846009CE7CA
:1021D000B881002C05DA4C4501D1544601E061423A
:1021E0000CB240F266618C4201DDA6F84410A6F8FC
:1021F0004480A6F8460088E73C0100203403002014
:102200009CFF31000080FFFF10B5B1F90220B1F949
:10221000004000FB02F3088004FB02308A6810448F
:10222000886000F5804040F3CF3010BD2DE9F041CB
:102230006FF04044A507B1F900304343B1F90420E1
:10224000E607002A10DB0A7903FA02FC24FA02F7F7
:1022500046FA02F8BB4201DD234607E0434501DAB6
:102260002B4603E0634601E052421341B1F90220DC
:10227000B1F90CC002FB00F702FB0C724FF0804773
:10228000BA4201DB224602E0AA4200DA2A468881ED
:10229000B1F9060000280FDB887902FA00FC24FA65
:1022A00000F80641424501DD224607E0B24201DA6C
:1022B0002A4603E0624601E04042024108690244C6
:1022C000BA4201DB224602E0AA4200DA2A46B1F90C
:1022D0000A60F003B1F908C04FEACC38824201DD50
:1022E000024602E0424500DA42460A611A44BA4216
:1022F00001DB224602E0AA4200DA2A4602F58042C9
:10230000BA4201DB224602E0AA4200DA2A4642F340
:10231000CF30864202DA3046BDE8F0818445FBDDED
:102320006046F9E7B1F90020002805DD824201DAB4
:10233000488804E0888805E0824202DA88881044F0
:1023400001E04888101A088000B270474FF08040C2
:10235000816A4A06084905D50A6842F480720A6013
:1023600040228262826A920605D00A6842F4000224
:102370000A603F21816270475802002001F0E4FBAF
:10238000044848F2E4710164016B41F00201016309
:10239000FEE70000000002402DE9F0410446002065
:1023A000E43484F85800B4F92400FEF74EFC1D4FC5
:1023B0003946FEF761FA1C4E3146FEF72BFA054608
:1023C000B4F92600FEF741FC3946FEF755FA3146CE
:1023D000FEF720FA0646B4F90000FEF736FC39464F
:1023E000FEF74AFA1149FEF715FAFEF783FC104A88
:1023F000104BFEF732FB6FF00102FEF70FFCFEF709
:10240000BDFC0D49FEF706FA074629463846FEF799
:1024100033FA206531463846FEF72EFA6065BDE88E
:10242000F081000000FEFF4600007A4200004842B2
:10243000FCA9F1D24D62203F00007A44FEE7002162
:10244000016041608160C1604161083000F066B8A0
:1024500070B504464FF00046D4E90001751E00280F
:1024600001DD002903DC002815DA002913DA002831
:1024700002DD2A1A8A4205DB002809DAC0F100428F
:102480008A4205DD002801DD284606E0304604E0EA
:1024900002F092F901E002F08FF9C1178A0342EAD3
:1024A000904281036069411842EBE0724FEAD130FB
:1024B00040EA42404FEAC032891A6161E26890EA1C
:1024C000020F0CD5002805DD2B1A51428B4206DA8B
:1024D0002E4605E0C0F1004351428B4200DC861AD3
:1024E000A368A069C117C6FB03014B0443EAD031BE
:1024F000CB03C01AA06102EB0100E060B0F5004F11
:1025000003DB47F6FF70E06003E00349884200DA2E
:10251000E1602068606070BD0080FFFF00214160C5
:10252000C1604161816170472DE9F0410446294E47
:102530004FF0FF352069FEF7DDFB884607462A4647
:10254000FEF76CFB00223346FEF7E0F902460B462D
:1025500038464146FEF7F3FA1E4B0022403BFEF799
:10256000DDFB2FD22069FEF7C5FB884607462A46C9
:10257000FEF754FB00223346FEF7C8F902460B462D
:1025800038464146FEF7DBFA0022134BFEF7DEFB2E
:1025900015D82069FEF7AEFB884607462A46FEF7A7
:1025A0003DFB00223346FEF7B1F902460B463846A2
:1025B0004146FEF7C4FA0F22FEF730FB04E000208C
:1025C000064901E000200649FEF775FB00B2A06055
:1025D000BDE8F0810000F03F0000F0BF0000E0C067
:1025E000C0FFDF4070B506460D4614464FF40000AC
:1025F000854217DB844215DB4FF0FF312846FEF79A
:1026000079F92146FEF7D6FB0CD929462046FEF77C
:1026100033F90549FEF7FEF830613046BDE87040F9
:10262000FFF782BF70BD0000DB0FC9402DE9FC5FE2
:10263000DFF8FC83002588F80150FE4C24F8325C5A
:10264000FD4E308824F8300C24F82E5C44F82C5CC5
:1026500044F8285C84F81C5124F8025C25806580CD
:10266000A580E58025816581A581E581258265823A
:10267000A582E5822583658325846584A4F820519D
:10268000A4F82C51A4F82E51A4F83051A4F1640000
:1026900000F5C079D9F81010C1600582A4F8CC51BA
:1026A000A4F8CE51A4F8D051A4F8D251A4F8D45132
:1026B000A4F8D651A4F8D8513220A4F8DA01642045
:1026C000A4F8DE019620A4F8E00125633089A084F7
:1026D0007089E0842585B08860854142A185F288B3
:1026E000E2852564F289A286328AE28625876087A0
:1026F000A187B089E087A4F85850F08BA4F85A005D
:10270000308CA4F85C00B6F84400A4F8A000B6F839
:102710004600A4F8A200708AA4F84400F08AA4F845
:102720004600B08AA4F84800308BA4F84A00708BA9
:10273000A4F84E00B08BA4F84C00A4F85050656586
:10274000A4F89050C4F89850B28FA4F89220F38F58
:10275000A4F89430A4F88450A4F88650B6F8420047
:10276000A4F888004042A4F88A00B78CA4F87870D6
:10277000E567A4F86850B6F830C0A4F8B8C0708E09
:10278000A4F8BA00B18EA4F8C21047F6906AA4F873
:10279000BEA0CAF1000BA4F8C0B0C4F8C450A4F89D
:1027A000BC50A4F8C8C0A4F8CA00A4F8D210A4F879
:1027B000CEA0A4F8D0B0C4F8D450A4F8CC50308D3A
:1027C000A4F8E600708DA4F8E800B08DA4F8EA0043
:1027D000F08CA4F8EC00F08DA4F8EE00F08EA4F8D4
:1027E000F000308FA4F8F200708FA4F8FA0047F6DA
:1027F0007660A4F8F60048F28A10A4F8F800C4F84D
:10280000FC50A4F8F450A4F80221A4F80431A4F870
:102810001471C4F8185104F1AC00FEF7CBFB708BB7
:10282000A4F8A600B08BA4F8A800A4F8505146F66E
:10283000D960A4F85201A4F8545184F85851A4F86E
:1028400056510320A4F86401C4F868510220A4F88A
:102850007401C4F8785136F8021C243EA4F8B4116F
:10286000C4F8B8510621A4F8C411C4F8C851A4F89A
:102870008401C4F88851A4F89401C4F89851012047
:10288000A4F8A401C4F8A85124F80C0C34F91A1CBB
:1028900004F5F17001F0B9FE6848FEF7C5FE04F1D9
:1028A0003403A3F12002A2F10C0101F5FE70FEF742
:1028B00069FB634802F025FB36F9640FC8F818007D
:1028C00036F9220CC8F81C0036F9200CC8F8200094
:1028D00004F5177002F0A6F90A20A4F86C00A8F815
:1028E000065004F590713022A1F5C270FDF76EFF1D
:1028F000A4F84852534F308A3880708A7880F08923
:102900007881B089F88041423981FD60BD80F28ACA
:102910003A82328B7A82B28A7A83F8823983FD6175
:10292000BD82A7F1A400D9F83410C0F8CA1004F190
:102930009C00D0E91D23016FC06F47F8841C47F845
:10294000802C47F87C3C6C3747F8E40C3E4800F09C
:1029500081FFFEF75BFE88F80050708B3886F08BA5
:102960007886B08BB886308CF886708C7887B08C7F
:102970003887BD873D6487F8445004F54E70FFF7F3
:102980005EFD04F54070FFF7C9FD04F54770FFF7E1
:10299000C5FD2E4E2E4F3246394604F54070FFF7E6
:1029A00021FE04F54070FFF7BFFD3246394604F5BD
:1029B0004770FFF717FE04F54770FFF7B5FDC4F841
:1029C0004C5243F69820C4F85002A8F80E50A4F8D0
:1029D000565220480587458784F83851A4F8585244
:1029E00042F2107640F247173146384600F082FE38
:1029F00002B242F266644FF47A75CDE9005445F6AE
:102A000099183346414609F5117002F034F92B4606
:102A10003246394609F5117002F051F9314638460F
:102A200000F068FE02B23346414609F5187013E023
:102A30003C01002068030020CC000020800800201A
:102A4000F00A002060090020140A00200000A041C4
:102A500000401C4610080020CDE9005402F00BF99C
:102A60002B463246394609F5187002F028F93146EE
:102A7000384600F03FFE02B241F699186D00CDE9EC
:102A800000583346214609F51F7002F0F4F831462C
:102A9000384600F02FFE02B2CDE9005833462146F9
:102AA00009F5267002F0E7F8BDE8FC9F70B5064610
:102AB0000846FEF71FF904460D463046FEF71AF9A0
:102AC0000022074BFDF7C9FF22462B46FEF737F8D9
:102AD000FEF754F9FEF7C2F80249086070BD000025
:102AE000C0FFDF40A40200202DE9F0411C4847F65A
:102AF000FF71A0F89A1041F69911418647F23338D8
:102B0000A0F8348041F2883181634FF4FA71C163D7
:102B10004FF4967101644CF250314164A0F5957404
:102B200001252580AE03668040F26667A7807800A5
:102B3000FEF774FDA4F804810A48C08FA4F80201CE
:102B400009490A48FFF7B2FF0948002181720222B1
:102B50008281068247828182C581BDE8F0810000C2
:102B6000C4050020A800002000401C467B54E94317
:102B7000A60800200C4848F2E4710164016841F4A1
:102B800080310160416841F48071416007490A6801
:102B900042F007020A6049F27C224A60416F21F04C
:102BA000FF0155314167704700000240008000403E
:102BB00010B5124CA068800708D5A068C00705D1E1
:102BC0000220A060FEF766FB01F0A2F8A068C00733
:102BD00006D00320A0600A4A911E881EFEF7E6FA7E
:102BE000A068C00608D51020A060054ABDE81040C6
:102BF000911E881EFEF75ABA10BD0000002000404A
:102C0000DE0100200248016841F0100101607047B8
:102C1000003000402DE9F041234C6069234E244DE3
:102C2000C00514D5A878012811D14FF40140606186
:102C3000204F387810B96069000406D4012000F0F4
:102C40007BFD306840F0080030600120387060691A
:102C500040061AD54020606180006061606961694A
:102C6000C0F3C020C1F3C041084305D012486061E1
:102C7000306840F004003060022028700021A97004
:102C800068700E48206101F083F860690C4E304294
:102C900005D0A878032804D001F094FE6661BDE851
:102CA000F08101F035F8F9E700300040EC01002038
:102CB0007802002084020020000808004000020082
:102CC00000090E002A48416921F040014161416933
:102CD00021F440714161416941F4803141614169B0
:102CE00021F4406101F580614161416941F4005185
:102CF0004161416941F4004141611E480021016088
:102D0000026842F004020260026842F008020260B7
:102D1000026842F080420260026842F08052026023
:102D2000026842F400320260134A0261826A6FF361
:102D3000130202F5C8728262C26A6FF3130202F5CF
:102D40006142C2620D4B08221A600C4AFD3A82F8B9
:102D50000014491E4161016821F001010160016810
:102D600041F480310160016841F000510160704719
:102D700000200040003000404000020000E100E080
:102D800070B500200D4D0C4C0D4A2978491C04E00B
:102D9000936926187370401CC0B28842F8D3064865
:102DA000FEF772FB297821444978884201D101203D
:102DB00070BD002070BD00009C0800207E02002035
:102DC0000030004070B5154C20691549084320615A
:102DD000206840F07070206012490420886012481A
:102DE000124E134D006832784168681CFDF7EEFC06
:102DF0002846FEF749FB3278A918487072B6206859
:102E000020F4701020600121521C03E0685CE06136
:102E1000491CC9B29142F9D962B670BD0030004078
:102E200000010C0000200040800200207E020020F3
:102E30009C08002070B5164CE06B007800F0B8FBE1
:102E4000002824D0E06B4078062820D1E06BC378BE
:102E50000020104DE26B011D515CFF2905D01A18AE
:102E6000072A02D201B9FF21A954401CC0B204288C
:102E7000F0D30948616C40780870616C012048709B
:102E8000616CF7208870BDE8704000F0CFB970BD6C
:102E9000F0520008B0010020D001002010B5144C01
:102EA000E06B0078012801D07F281FD1E06B4078CB
:102EB00006281BD1E06BC01C00F086FB002815D053
:102EC000E06B401D00F05EFB00280FD0E06B09496D
:102ED000C0794870616C01200870616C4870616C49
:102EE000F0208870BDE8104000F0A0B910BD0000CF
:102EF000F0520008D00100200146480880EAD100C5
:102F000080EA111080EA5110C043C007020E01F0A0
:102F10000100C1F340035840C1F380035840C1F39E
:102F20000013584042EA801201F0C000904201D1E3
:102F3000012070470020FCE701490020087070471D
:102F4000D001002070B5234DE86B007800F030FB15
:102F500000283DD0E86B4078062839D1E86BE96B52
:102F60000079401EC0B20871E96BC97891B9042894
:102F700010D8052814D2DFE800F0030507090B007C
:102F800041240DE000240BE0342409E0122407E082
:102F9000AB2405E001291BD1032819D80E490C5C8C
:102FA000E86BE96B807949796040084210D10B48A1
:102FB0006A6C417811706A6C012151706A6CF3215E
:102FC0009170E96BC9794170BDE8704000F02EB98D
:102FD00070BD0000F0520008E4520008D00100204B
:102FE00010B50F4CE06B007800F0E2FA002815D025
:102FF000E06B4078022811D1E06BC07802280DD137
:1030000000F0E0FFBFF34F8F06480168064A01F465
:10301000E06111430160BFF34F8FFEE710BD000078
:10302000F05200080CED00E00400FA0501480078B9
:1030300070470000D001002070B50F4DE86B00789C
:103040007E2802D00D490020087000240C4EE86B49
:1030500016F834108078884209D195F84110FF2283
:10306000686CFDF7C5FB06EBC40040688047641C34
:10307000A4B2072CEBD370BDF0520008D0010020A1
:103080003853000810B5304CE06B007800F090FA2F
:10309000002858D0E06B4078062854D1E06B001D22
:1030A00000F092FA00284ED0E06B801D00F06AFA22
:1030B000002848D0E06B2549F222C078A0B1122345
:1030C00001282CD04878616C0870616C032048702E
:1030D000616C7F208870616CB220C870606C037175
:1030E000BDE8104000F0A2B84878616C0870616CCF
:1030F00006204870606C82701548626C0178D1704F
:103100000188626C090A1171626C81785171418881
:10311000626C090A9171616C0079C871E0E74878C6
:10312000616C0870616C05204870606C8270616C25
:103130007820C870616C56200871616C3420487129
:10314000606C8371CCE710BDF0520008D001002004
:10315000E85200082DE9F041204DE86B00787F2807
:103160001DD1E86B4078062819D1E86BC01C00F02F
:1031700041FA002813D0E86B807902280FD1E86B60
:10318000012700264079164C01280AD002281AD0BF
:10319000032821D0042802D1FEF77CF82671BDE86F
:1031A000F0812771667100F069FD0E484FF6FF71DE
:1031B000816047600C4806704FF0E0204FF40061DA
:1031C000C0F80011EBE720790328E8D1E86BC0795B
:1031D000607004202071E2E7A770E0E7F052000879
:1031E000D0010020002000400BE400E070B50D4C41
:1031F000E06B007800F0DCF9002811D0E06B40783B
:1032000001280DD1084D616C68780870606C01264A
:103210004670616CF620887000F008F8AE70EE70B1
:1032200070BD0000F0520008D001002002480121CA
:103230000170642101817047D001002010B572B681
:103240004A4A48F2E4701064506F20F47F4050679F
:10325000506F20F0FF00506748F63D20106441F6A3
:10326000EC1010644248016821F00301891C0160E0
:10327000416841F001014160106840F48030106005
:10328000106840F400301060506840F00100506059
:10329000506840F020005060906840F0020090605C
:1032A000906840F020009060506840F00800506046
:1032B000506840F004005060906B20F0407000F1C6
:1032C00000709063906B40F040009063906B20F032
:1032D00020009063906B40F01000906300F0EAFBD8
:1032E00024480168490605D50168890602D400F022
:1032F000D5FB07E00168890604D50068400601D4C3
:1033000000F016FCD06B20F04000D063302001F0BC
:1033100093F808B1FEF736FBFEF794F9FEF734FB9D
:10332000FEF76CFCFEF7AAFBFEF7E6FC124806214E
:1033300001700021A0F86C12104B10221A6041702D
:1033400001F020FC08B1FEF71DFB01F031FB01F09C
:103350001DFB08B1FEF716FB62B60948416A094831
:1033600001F028FCBDE81040FFF704BC000002405B
:1033700000000340005002403403002000E100E060
:10338000F05200087001002010B5020000D5424242
:103390000B0000D54B42184C9342A46815DC9B02ED
:1033A000B3FBF2F2002834F8123005DD002901DB0E
:1033B00018B210BD584203E0002903DBC3F50040FA
:1033C00000B210BD03F50043F2E79202B2FBF3F244
:1033D000002834F8123007DB002902DDC3F58040F5
:1033E000EEE703F54043E3E7002902DD03F5804300
:1033F000DEE7C3F54040E3E75C02002030B504009F
:1034000003D5404204B2484201B2200000D56042D8
:103410000A0000D54A42824202DD03B210461A4633
:10342000114D41F6FF738242AD680EDC9202B2FB91
:10343000F0F0002C35F8100003DD002903DA4042DB
:1034400001E000290DDA03B20BE08002B0FBF2F0DC
:103450000648002C02DB002903DC01E0002900DD26
:103460000346184630BD00005C02002001E0FFFF6B
:10347000002800DA00200C4AC0F3CF11126802EBDA
:10348000410332F811205B88991AC31700EB53638C
:1034900023F07F03C01A4143C81701EB506002EBD1
:1034A000E01000B2704700005C020020224B10B513
:1034B0005A6810F5804F0FDA47F6FF74204400B2C7
:1034C00010300011C0F5806432F8100040420880CE
:1034D000586830F814002CE000280FDA00F580401E
:1034E00000B210300011C0F5806432F8142052424E
:1034F0000A805A6832F81000488010BDB0F5804F3D
:103500000ADA10300011C0F5806432F8100008802B
:10351000586830F81400EFE7A0F5804000B2103092
:103520000011C0F5806432F814200A805A6832F81D
:1035300010004042E0E700005C0200202DE9F0416D
:103540000E4C04F130060E480188022914D30025E0
:10355000058001270EE0A088401C80B2A080618811
:10356000884200D3E780E08818B1E580A580A06894
:1035700080470C34B442EED9BDE8F0810000002051
:10358000A00000200178FF2902D14278FF2A08D04C
:10359000064A9378994206D140785188B0EB112FB2
:1035A00001D101207047002070470000E852000858
:1035B00004494978884203D07F2801D00020704711
:1035C00001207047D00100200178FF2902D1427804
:1035D0007F2A08D0064A1378994206D1407811888C
:1035E000B0EB112F01D1012070470020704700007F
:1035F000E85200080178FF2902D140787F2801D0E5
:10360000002070470120704770470000F8B534482B
:103610008068FDF73CFB80B208B940F6B8300090F6
:10362000304D3148B5F92230B0F90210B5F96E22AB
:103630002E48FEF724F804462D480127002600688E
:1036400080B1A5F89A606E7085F874723220C5F862
:103650007002012000F00AFA002140F2DC5000F074
:10366000E9F92DE095F87402F8B9002000F0FEF9B0
:10367000B5F99600002801DD014600E0414209B29B
:10368000B1F54D7F01DB012200E0002200214AB1AB
:1036900044B1002801DD002C03DB002802DA002CF5
:1036A00000DD012111B1A5F89A6009E034B1A5F857
:1036B0009A402878012803D16F7001E0A5F89A603C
:1036C000B5F89A0000280AD1B5F99600002800DC68
:1036D000404200B241F23331884200DA6E70F8BDE8
:1036E000A8000020340300207C000020D402002029
:1036F00058020020484300F58040C00B70477047D7
:1037000000F01F02012191404009800000F1E020FB
:10371000C0F8801170474907090E002806DA00F04A
:103720000F0000F1E02080F8141D704700F1E02048
:1037300080F800147047000010B504463E484078F9
:10374000032872D13D48007800F0040050B93B488E
:10375000007800F0030028B13848008840F00400E9
:1037600036490880002C5ED13548007834494978C4
:1037700088420AD1002033490968334A891A012254
:1037800002EBE101314A505408E000202D4909685C
:103790002D4A891A2D4A02EBE10108702848017868
:1037A0002648008861F31F2040F00200234908806A
:1037B00000F094FA224801F0D5F81F4880780128DB
:1037C00033D11F4800783C280BD11D48407840B9C0
:1037D0001A48008840F0080018490880FEF7CEFD1E
:1037E00010BD174800783C2813D1154840780028B0
:1037F0000FDD134840787F280BDC124909684868C0
:1038000013490A780E49491CFCF7E0FFFFF714FC46
:103810000BE00C49096848680D490A780849491CB9
:10382000FCF7D4FF01E000F08FFA00F071FAFDF729
:10383000ABFD00BFD4E70000780200207C0200202E
:103840009C08002080020020F05200083807002069
:103850007E020020002101710172817401830180C8
:1038600080F82010C1748183C185018641868186DC
:10387000816380F83C10C1870422A0F84820C1640D
:10388000A0F85820C1650B4A0266A0F86410A0F8A1
:103890006610A0F86810A0F86C10C0F8B010C0F85E
:1038A000B410C0F8B810C0F8BC104FF4C871A0F83C
:1038B0006A1070470080FFFF1148816ACA001149F1
:1038C00007D50A6842F002020A60826A42F080521A
:1038D0008262826A920007D50A6842F001020A6099
:1038E000826A42F000528262826A520007D50A68F8
:1038F00042F480620A60816A41F0804181627047CF
:10390000000002405802002010B50C480021036856
:103910000B48026B934202D99C1A022C01D89342A5
:103920000AD2C1610161816101628160C16041614E
:1039300001630121017010BD017010BD9C000020C9
:103940004000002010B50B4BD969986A814201D91B
:103950000A1A00E0421A0024082A02D95C6299621D
:1039600010BD596A491C59626429F9D3D8625C6256
:1039700010BD000040000020F0B54FF04023586A11
:103980002549C0074FF003054FF0000425D0986883
:10399000C0F30D0048618A681AB1C2EB823210444C
:1039A000486148694000B0FBF5F088618C600A69A5
:1039B00010440862194FA0F6C416BE420AD848B196
:1039C0004FF47A767243B2FBF0F0C8611448006895
:1039D000086300E0CC6101205862586A800711D565
:1039E0005868C0F30D00C8608A681AB1C2EB823211
:1039F0001044C860C8684000B0FBF5F008618C60F6
:103A000002205862586A400704D58868401C8860C4
:103A100004205862F0BD00004000002084DE010058
:103A20009C00002000B5FFF76FFF5DF804EBFFF787
:103A300089BF00000C4AB2FBF0F0401E4FF040235B
:103A40001A6960F30D021A614FF47A72914200D93B
:103A50001146C1F57A714143B1FBF2F1586961F346
:103A60000D0058617047000060E316004FF04021E0
:103A7000002808D0086840F002000860086820F0BC
:103A8000010008607047086820F0020008600868BC
:103A900040F001000860704770470000044841682A
:103AA00041F400614160416821F4805141607047F8
:103AB000005002401C4848F2E4710164016841F47E
:103AC00000310160816841F0020181601748816B1B
:103AD00021F4704101F580518163C16841F40061B6
:103AE000C160816B21F4702101F580318163C1686F
:103AF00041F48051C160416B21F4700141638168E0
:103B000041F020018160016A41F020010162416BB6
:103B100021F070614163816841F040018160016A78
:103B200041F0400101627047000002400050024035
:103B30000448416821F400614160416841F48051CA
:103B40004160704700500240704700002DE9FC4181
:103B5000284C20466278B0F90210B0F90480C76999
:103B6000B0F90600002A0ED0226ABA420BD1B4F98D
:103B70000C208A4207D1B4F90E20424503D1B4F992
:103B80001020824234D02762A181A4F80E802082C6
:103B90004FF4FA660025390C3804174A00238018C0
:103BA00041F100015200FCF7BFFD0A4647F6FF73E2
:103BB00000211B1A914101D247F6FF70608200EB91
:103BC0004000A08239464046FFF794FD6062B4F998
:103BD00010100246CDE90061B4F90C100748236AC1
:103BE00001F049F8E5822583258165810120607017
:103BF000BDE8FC81A802002040420F00D40A00204A
:103C000070B51C4CA06A401CA0622078002830D0FF
:103C1000FFF79CFFB4F9160001F0CCF80546B4F9A3
:103C2000180001F0C7F841F699114D43E91340F22D
:103C300066625043C013084400F30F0000F2666050
:103C400000F30F054FF4FA6329460B48E26901F0CF
:103C500054F825816081B4F91210B4F9160000F00F
:103C600095FDE082B4F91410B4F9180000F08EFD4F
:103C7000208370BDA8020020D40A002006480068F6
:103C80004AF25A520549B2EB104F01D10870704701
:103C9000012008707047000000040108D1010020D5
:103CA0001CB50D4B0CCBCDE90023D4B2120A42EA6D
:103CB0000362D2B2CB43DBB206290CD88C420AD1C4
:103CC0009A4208D10DF10203002202E09C5C845468
:103CD000521C8A42FADB1CBD0804010810B50848D2
:103CE000807802280BD10748074900780978884274
:103CF00005D1002000F04EFD04490020086010BDF1
:103D0000780200209C080020B0010020EC01002077
:103D100010B5094C206820F001002060FDF7E6FA9C
:103D2000064820614FF0FF30606105480021817036
:103D30000121417010BD0000003000404000020031
:103D4000780200207047000010B5FDF74DFA00B171
:103D500010BD0B488078022805D10A480068007819
:103D6000022800D1F4E7084801780848008861F388
:103D70001F2040F001000549088000BFE8E700006F
:103D800078020020800200209C0800207C02002095
:103D90000E480168890714D40168C90711D1016868
:103DA000C9060ED4016809070BD40168490608D476
:103DB0000168890605D40168090602D40068400735
:103DC00002D5012000F0E6BC70470000EC010020A5
:103DD000F0B57A494A78002A71D0794A936F23F076
:103DE000FF0355339367B0F86C408B88191B0CB2F6
:103DF000A0F86C40018F651A2EB221440FB2012544
:103E0000591E012C10DC946D44F001049465946DEE
:103E100044F008049465D46D44F00804D465D46D6E
:103E200024F00104D4652CE08C4210DB946D44F046
:103E300001049465946D44F008049465D46D24F0F5
:103E40000804D465D46D44F00104D46519E0946D80
:103E500024F001049465946D24F008049465012E07
:103E600001DA956104E08E4201DD916100E0966126
:103E7000012F01DAD56104E08F4201DDD16100E05C
:103E8000D761B0F86E401C1B24B2A0F86E40478F7B
:103E9000E61B36B227443FB2012C11DC946D44F08E
:103EA00002049465946D44F010049465D46D44F05C
:103EB0001004D465D46D24F00204D4652DE07BE0B9
:103EC0008C4210DB946D44F002049465946D44F0D0
:103ED00010049465D46D24F01004D465D46D44F0BE
:103EE0000204D46519E0946D24F002049465946D85
:103EF00024F010049465012E01DA156204E08E426C
:103F000001DD116200E01662012F01DA556204E062
:103F10008F4201DD516200E057623C30848E1B1BF2
:103F20001BB283860488181B00B21C4424B2012BE8
:103F300010DC906D40F004009065906D40F0200022
:103F40009065D06D40F02000D065D06D20F0040069
:103F5000D0652CE08B4210DB906D40F00400906542
:103F6000906D40F020009065D06D20F02000D0656D
:103F7000D06D40F00400D06519E0936D23F0040388
:103F80009365936D23F020039365012801DA956210
:103F900004E0884201DD916200E09062012C01DAC8
:103FA000D56204E08C4201DDD16200E0D462906F02
:103FB00020F0FF00AA309067F0BD00003C01002017
:103FC0000010024010B5802200211248FCF710FCBE
:103FD00010494FF4B44008610F4848610F4C206805
:103FE00008600E480830006888600C480C30006893
:103FF000C8600B49486920F03F022F324A610949E5
:10400000204688472046074ABDE8104001499832BB
:104010001047000078070020000092760004010895
:10402000000003408500000103490020088048800B
:10403000891F088070470000720200202DE9F041BE
:104040000025504C04202070082060706088401CBF
:1040500081B261804C4F04F21626B7F98E0081427E
:1040600031DAFFF7E1FFFDF761FB4FF08040816837
:1040700089070AD0816801F0030101290ED0816807
:1040800001F00301022912D018E0618BA4F82C1270
:10409000816821F00301491C81600FE0618BA4F865
:1040A0002E12816821F00301891C816006E0618B7A
:1040B000A4F83012816821F0030181603046BDE828
:1040C000F04100F0B3BA0CD1B4F99A20002A08DA12
:1040D00094F83622022A11D0012A11D0002284F845
:1040E0003622294A94F836324FF00008B2F990206F
:1040F00013B3012B13D0022B38D103E00122EEE7DA
:104100000222ECE7914207DAFDF724F9B4F91A101C
:10411000304600F07AFA29E0A4F8028026E09142C5
:1041200007DAFDF717F9B4F91A10304600F06DFA06
:104130001CE0A4F8028019E01044884202DDFDF77B
:1041400009F913E0FA8C104488420CDDFDF702FCFB
:10415000A4F89480B7F88C00A4F84400A4F8468032
:10416000FDF7E2FE02E084F850810125002D07D022
:10417000FDF7BCF9054994F85001087009206070FA
:10418000BDE8F08134030020A80000203C0100209D
:1041900010B500241F4B0320187006205870FDF73F
:1041A00095F9FDF7C3FA44F6CC40A3F860014FF44B
:1041B0008041A3F86211A3F864111648303800F565
:1041C000C0721269C2600182D888411CD98010284F
:1041D0000AD2B3F91210986808449860B3F9141021
:1041E000D8680844D8600FE01020D8809868C117BC
:1041F00000EB1170084900110880D868C21700EB65
:104200001270001148800124002C01D00720587042
:1042100010BD0000340300207408002000B50E4BD0
:1042200001201870FDF782FA44F6CC40A3F8600133
:104230004FF48041A3F86211A3F8641106483038A6
:1042400000F5C0721269C26001820020A3F89600D6
:104250001886A3F8760200BD3403002070B501254E
:10426000134C0026267002206070FDF75FFAFEF7FF
:10427000DDF9A4F89460A4F8966044F6CC40A4F864
:104280006001A903A4F86211A4F86411A4F130003C
:1042900000F5C0721269C26001820020401CC0B2E9
:1042A0000828FBD3002D01D00320607070BD0000F2
:1042B000340300200248022101700521417070473B
:1042C0003403002000B5054B062018700C205870F0
:1042D000FDF72CFA0D20587000BD000034030020BB
:1042E000F8B54B4C052020700A206070494D00261F
:1042F000AE7004F1E000A0F19403A0F1A802A0F1D7
:10430000100100900E38FCF703F9B4F9E200002820
:104310000BDDB4F99600002807DDB4F8D00047F6AD
:10432000FF710844A4F8880203E0B4F8D000A4F8B0
:104330008802FCF771FE364894F85011B830F1B19C
:10434000012932D004294BD0042084F8500194F87C
:104350005001032812D0B4F8A0002F49401C00B22D
:10436000A4F8A000B1F84610884204DBA4F8A060CD
:10437000FDF784FEA870FDF7D7FDA870F8BD803466
:10438000B4F91C10FDF73AF8A08F608040422080FD
:10439000208FA082E682A869E081A869208234F992
:1043A0003A0C8003A060803CD1E78034B4F91C1043
:1043B000FDF724F8B4F85010208F091A2981A18F35
:1043C000618049422180A082A08BE08234F93A0CBE
:1043D000C003A060A869E081A8692082803CB6E79C
:1043E000E8698034E081286A2082B4F85A0060804D
:1043F000B4F85C002080B4F90802A082B4F852102E
:10440000E1826187A4F84400C003E064803C9EE739
:10441000340300203C010020A8000020054841682A
:10442000491C41604168491C00D141600188491C18
:1044300001807047A00000204FF0E0210A6942F09F
:1044400004020A610B4A10600A6942F001020A6123
:104450006FF070424A614FF4FA7250430A6942F0B9
:1044600002020A6148618861034940200870002007
:10447000704700009800002023ED00E00249014849
:1044800008607047006CDC029400002010B50A4CF4
:10449000A08BFCF79DFFA4F86E0208480168491C38
:1044A0000160074890F83C01002804D0BDE81040A6
:1044B0000348FDF771BF10BD340300209C000020AD
:1044C000BC0800207047704710B5FDF721FDFCF7D0
:1044D0009BFDBDE81040FFF7A5BA000010B5FCF742
:1044E0009AFD00F08DF9FFF791F8FDF7AFFAFDF7AF
:1044F0008BF805480078022805D100F033F8BDE8B4
:10450000104000F01FB810BD7C0000204FF0E022EA
:104510009169884201D9401A02E052691044401A58
:1045200002490968B0FBF1F07047000098000020D4
:104530004FF0E0200169024A002111608069704754
:10454000A400002004480549006808600448416947
:10455000024800F0F4B90000580200208001002059
:10456000F05200082DE9F041224FB868FCF776FBC5
:10457000214C00B247F6FF76B4F99610484390FB01
:10458000F6F01E4D2880B4F96E021D49884202DA09
:10459000A4F86E1205E040F2DC51884201DDA4F877
:1045A0006E12B4F86E0200F5C8706880662028713B
:1045B0007868FCF753FB00B2B4F9221000EB8000DE
:1045C000484390FBF6F080B2FA2800D9FA206871CF
:1045D000B4F97602002802DA0020A4F87602B4F8D2
:1045E0007602E88007484168BDE8F041034800F0E2
:1045F00093B90000A80000203403002078010020B7
:1046000070FEFFFFF05200087047C18201834183B2
:1046100000218180418001800F22028140F23332EB
:1046200042810182818280F82010704770B5044673
:10463000B4F91810B4F91A201144B4F91620C1EBDA
:104640004201032291FBF2F120F81C1F218B628BA7
:10465000891A09B244F6E712514341F3CF31418040
:10466000B4F91C00051E00DC684200B2002901DD1F
:104670000A4600E04A42104402B2A280B4F9063071
:1046800003EB4300800000EB82000011E08028462D
:10469000FEF77AFEA0F580402080618AA28A411A46
:1046A000114409B2A1826082208A2D4B401C02B2C3
:1046B000002022820A2A0DDB40F6CC425143CA1365
:1046C000B3F9001047F23335694302EBE131198049
:1046D000A0822082B3F9001001EBD171491001EBE7
:1046E000410109B26180B4F90620B4F908309A4258
:1046F00030DDA289521C12B2A281B4F90A3099426B
:1047000008DDE1894FF47A73491C09B2E1819942CD
:104710000ADC0CE05B42994208DAE189114B491E40
:1047200009B2E181994202DAE38100E0E0810A2ADC
:104730000FDDB4F90E10642901DD022103E011F14F
:10474000640F03DA012184F8201001E084F82000CE
:10475000A08170BDE081A08184F8200070BD0000C0
:104760006A02002018FCFFFF4FF4004101E0A0F5B1
:1047700080308842FBDA044901E000F5803088424D
:10478000FBDB00B2704700000080FFFF084400B26E
:10479000FFF7EABF074A00285168C97904D041F001
:1047A00001005168C871704721F001005168C8715B
:1047B00070470000F052000890EA010F0FD4002863
:1047C00006DD6FF00042131A8B4208DA104670477C
:1047D000C0F100428A4202DD4FF0004070470844B9
:1047E000704702E008C8121F08C1002AFAD17047BA
:1047F0007047002001E001C1121F002AFBD1704761
:1048000001490220087070477C000020F0B53F4B42
:104810003F4CB3F932006087B3F93410A187B3F984
:104820003620E287B3F99450A678002E0DD1B3F963
:104830009630384F7E0C002B05DABB4201D133464F
:1048400001E05B421BB2642B0CDA0C34A08660875B
:10485000E186A1872287E28765850020A08504F88C
:104860000A0CF0BDE38EEB1A1BB2B3F5804F03DDEB
:10487000A3F500431BB205E013F5804F02DA03F500
:1048800000431BB2002B05DABB4201D1334601E0E5
:104890005B421BB2268F33441BB22387B4F94060BE
:1048A000B04202DDA4F8400005E0B4F94660B04231
:1048B00001DAA4F84600B4F94260B14202DDA4F87E
:1048C000421005E0B4F94860B14201DAA4F848109A
:1048D000B4F94460B24202DDA4F8442005E0B4F922
:1048E0004A60B24201DAA4F84A20B3F5004F0ADB6D
:1048F000A3F5004324F8383F2081E08161812182C3
:10490000A2816282383CE586F0BD000034030020BD
:10491000F00100200080FFFF72B602780A70427832
:104920004A7082788A70C278CA7002790A714279B4
:104930004A7182798A71C079C87162B6704772B65D
:1049400002780A7042784A7082788A70C278CA7097
:1049500002790A7142794A7182798A71C079C87183
:1049600062B6704730B5074B047801215D78064A7E
:10497000AC4200D111700078DB78984200D15170C0
:1049800030BD0000B00100206A01002010B50748CA
:10499000007808B9012010BDFEF734F9FCF7F4FCEB
:1049A0000120024948700020F5E70000780200204D
:1049B00010B5FEF787F902200149087010BD00000C
:1049C0007802002070B50026002564484069C0F3D5
:1049D000002062494969C1F3C041084370B35F4890
:1049E0004069C0F3002058B15D484078032807D1E2
:1049F0005C48006820F0080008305A4908600FE061
:104A000056484069C0F3002050B15548407802280C
:104A100006D15448006820F0100010305149086059
:104A20004E484069C0F3C04030B14E48006820F0A5
:104A30000400001D4B490860012588E04848407883
:104A400002286BD1002048490870444880694749D2
:104A500008700878FEF750FA30B94248006820F034
:104A60000100401C3F490860404800787D2803D180
:104A7000FEF7DCFA00284CD03C4800787D2801D1B4
:104A8000FEF75AFA002441E03948005D37490978B9
:104A9000884239D1374800EBC400374908600846DE
:104AA00000680078022803D13448005D00B92FE087
:104AB000314800684078324908702F480068007813
:104AC000012804D02C4800680078022805D1FEF7A0
:104AD00079F902202249887012E00120204988706B
:104AE00027480078401C1D49096860F399511B480C
:104AF0000160006920F4807000F58070174908613A
:104B000003201749487003E0601CC4B2082CBBDBCB
:104B100000BF13488078D0B9012618E010484078CB
:104B2000032813D10E48807801280DD1FEF728F90B
:104B300050B902250B48006820F00200801C09498A
:104B40000860FEF7F9F902E0012600E0012506B948
:104B500015B12846FEF7F0FD70BD000000300040A2
:104B600078020020EC010020840200209C08002034
:104B7000B0010020F0520008800200203807002019
:104B80007E02002010B5FEF7DFFFFFF777F8072160
:104B90000548FFF785F805490020087048708870BF
:104BA0000349086010BD0000B00100207802002019
:104BB000EC01002072B602780A7042784A7082785E
:104BC0008A70C278CA7002790A7142794A71827910
:104BD0008A71C079C87162B67047420301EB410027
:104BE000C0EBC11002EB5001B1FBF0F0B0F5004F8B
:104BF00001D347F6FF7000B270470000FDF774FF65
:104C0000054902200870FEF719FB04490448FCF727
:104C100073FDFEF793FCFCE77C000020684F000862
:104C2000D40200200021643020F8641C20F8621CAB
:104C300020F8601C20F85E1C20F85C1C20F85A1C30
:104C400020F8581C8180C1804181418401874187BF
:104C50008187C18701818181018402220283C16130
:104C600020F8142C40F8101C20F8042C01608285D8
:104C70000163818670472DE9F0470446DDE9089518
:104C80000E46904618464946FFF7A7FF0746494695
:104C90004046FFF7A2FF26806080A7800020A08208
:104CA000E08220836083002D01DC47F6FC752582BD
:104CB000684260822046BDE8F04700F082B810B537
:104CC0000446084611461A46FEF714FD01462046E2
:104CD000BDE81040AFF3008010B504460846114609
:104CE000FFF77BFFB4F90210814205D060802046B7
:104CF000BDE8104000F065B810BD2DE9F04704464E
:104D00000D4610461946FFF768FFB4F904108142BA
:104D100003D0A080204600F054F8B4F906006843A0
:104D200040F3CF30B4F90810B4F91430594341F3CB
:104D3000CF310A18B4F90A00B4F91610484340F309
:104D4000CF308718B4F90C00B4F91860704340F301
:104D5000CF3041004FF4004A47F6FF796FEA090867
:104D6000514501DB4A4603E04246914200DB0AB26C
:104D7000A7EB020CB4F90E10B4F91A70794341F3A1
:104D8000CF30ACEB0000504500DB4846404500DA30
:104D9000404600B2B4F91010814200DA0846B4F976
:104DA0001210814200DD0846E382A58266832083DB
:104DB000BDE8F08708B56946FEF778FBBDF900004D
:104DC00008BD2DE9FF470446B4F904502846002DDC
:104DD00000D10125002602AA03A900F085F86A4641
:104DE00001A9304600F080F8284647F6FF760028F3
:104DF00004DA10F5004F5DD0404200B2B4F9022051
:104E000001461046FBF74CFB0146BDF908C0A6EB76
:104E10000C0000F30F00BDF90C30BDF900205A431F
:104E200042F3CF32BDF90450454345F3CF30151A54
:104E300005F30F07524212B2121A02F30F08B4F927
:104E400000204A4342F3CF356A106D422DB25743DA
:104E500047F3CF39454345F3CF3702FB08F242F31E
:104E6000CF38594341F3CF30311801F30F05CCF15E
:104E700000010FFA81FA301A00F30F06E5B1294656
:104E80004846FBF70DFBE08029463846FBF708FB58
:104E9000208129464046FBF703FB608129465046A6
:104EA000FBF7FEFAA08129463046FBF7F9FAE081CC
:104EB000BDE8FF873046A1E7002060812081E080C7
:104EC000A081E081F4E70000B0F5004F02DB47F677
:104ED000FF7070470349884201DA0846704700B204
:104EE000704700000080FFFF38B50C461546694644
:104EF000FEF7DCFABDF800002080BDF80200288033
:104F000038BD0021018002220287C1638180A0F8A0
:104F10004820C1644180C1804181018145F6510230
:104F20008281C18140F23332028241824161C1619A
:104F30004FF480428285C28580F85010012180F8AC
:104F4000511005218161C8210162C321816270472E
:104F5000E803B60398084C041A04D007B0047E0492
:104F6000DC059919E11ADC05504F00080300000028
:104F7000624F00080100B80B430F380F2D0F220FAE
:104F8000160F090FFC0EEE0EE00ED10EC20EB20E81
:104F9000A10E900E7E0E6B0E580E440E2F0E1A0EA2
:104FA000040EED0DD60DBD0DA50D8B0D710D560D1D
:104FB0003A0D1E0D010DE30CC50CA60C860C660CFB
:104FC000450C230C010CDF0BBC0B980B740B500B26
:104FD0002B0B060BE00ABA0A940A6D0A460A1F0A4E
:104FE000F809D109A90981095A0932090A09E3080E
:104FF000BB0894086D0845081E08F707D107AB07E2
:1050000085075F073A071507F006CC06A806840651
:1050100061063F061C06FB05DA05B9059905790509
:105020005A053B051D050005E204C604AA048F04C9
:10503000740459043F0426040D04F503DD03C5037D
:10504000AF03980383036D035803440330031D0328
:105050000903F702E502D302C202B102A0029002E4
:105060008002710262025402450238022A021D02C5
:1050700010020302F701EB01E001D401C901BF01F5
:10508000B401AA01A00196018D0183017B01720187
:105090006901610159015101490142013B0134019A
:1050A0002D0126011F01190113010D010701010145
:1050B000FB00F600F100EB00E600E100DC00D800A8
:1050C000D300CE00CA00C600C100BD00B900B500C3
:1050D000B100AD00AA00A600A3009F009C009900AB
:1050E000960092008F008C008A0087008400810067
:1050F0007F007C007A0077007500720070006E00FF
:105100006C00690067006500630061005F005D007E
:105110005B005A00580056005400530051005000E4
:105120004E004C004B004A00480047004500440038
:105130004300420040003F003E003D003C003B0079
:1051400039003900370037003500350033003300AF
:105150003200310030002F002E0000001D420008F8
:105160001D4200081D4200081D4200081D420008A3
:105170001D4200081D4200081D4200085D42000853
:105180001D4200081D4200081D4200081D42000883
:105190001D4200085D4200081D4200081D42000833
:1051A0001D4200081D4200081D4200081D42000863
:1051B000B54200081D4200081D4200081D420008BB
:1051C0001D4200081D4200081D4200081D42000843
:1051D0001D420008B54200081D4200081D4200089B
:1051E0001D4200081D4200081D4200081D42000823
:1051F000914100081D4200081D4200081D420008A0
:105200001D4200081D4200081D4200081D42000802
:10521000914100081D4200081D4200081D4200087F
:105220001D4200081D4200081D4200083D400008C4
:105230001D4200081D4200081D4200081D420008D2
:105240001D4200081D4200081D4200083D400008A4
:105250001D4200081D4200081D4200081D420008B2
:105260001D4200081D420008E14200081D420008DE
:105270001D4200081D4200081D4200081D42000892
:105280001D4200081D420008E14200081D420008BE
:105290001D4200081D420008B54200085D4200089A
:1052A0005D4200085D4200081D4200081D420008E2
:1052B0001D420008C54200081D4200081D420008AA
:1052C0001D420008C54200081D4200081D4200089A
:1052D0001D4200081D4200081D4200081D42000832
:1052E0005D4200087856341241003412AB000000D1
:1052F0000108000088010020000800009001002043
:10530000010800009801002000080000A001002012
:1053100001080000A801002001020000B9010020DE
:1053200002020000BB01002000080000BD010020B7
:1053300001080000C5010020B00000009D2E0008FB
:10534000B200000085300008B3000000452F0008BF
:1053500010000000E12F0008B500000055310008E2
:10536000B6000000ED310008B7000000352E00083F
:105370009053000800000020D4020000340F000801
:105380009C540008D4020020740C0000F24700086E
:10539000640100014ADD44000802000A00074AC710
:1053A00044000803000A00034AC9440008040064DA
:1053B000000B4AC54400080500E8030D06598D445A
:1053C0000008AA04136CDC02337A422F484216FF0D
:1053D000794566423745666666412F700300142E94
:1053E000F7131A2F0C02D2150437CC0C204E33734E
:1053F00035A80060FF48E90122FE9152022EF9FF14
:10540000E17A1F85180008000A000A3F3373A57B64
:10541000C235BA0B0100E5FE6501350906FAF9331C
:10542000F9053F0100CC4C4701CC0C850B331333FD
:1054300073353E3218CE28C358D0A75D5E012A4688
:1054400046F5FFE17A1F8508779919881388135369
:1054500060090528CC0CCC0C083901666619070CCC
:105460000B0A194203F0BAFBCF503C7D02100154E5
:1054700020024093FFFF026A010D2DEC110001E8AC
:10548000010001EA090001732C01E201F7991947B3
:0C5490000133733501800180E4A0860127
:04000005080006CD1C
:00000001FF
